:020000023000CC
:10E0000077C000009CC000009AC0000098C00000CB
:10E0100096C0000094C0000092C0000090C00000B4
:10E020008EC000008CC000008AC0000088C00000C4
:10E0300086C0000084C0000082C0000080C00000D4
:10E040007EC000007CC000007AC0000078C00000E4
:10E0500076C0000074C0000072C0000070C00000F4
:10E060006EC000006CC000006AC0000068C0000004
:10E0700066C0000064C0000062C0000060C0000014
:10E080005EC000005CC000005AC0000058C0000024
:10E0900056C0000054C0000052C0000050C0000034
:10E0A0004EC000004CC000004AC0000048C0000044
:10E0B00046C0000044C0000042C0000040C0000054
:10E0C0003EC000003CC000003AC0000038C0000064
:10E0D00036C0000034C0000032C0000030C0000074
:10E0E0002EC0000041546D65676132353630000046
:10E0F00011241FBECFEFD1E2DEBFCDBF01E00CBFC8
:10E1000012E0A0E0B2E0EAEDF7EF03E00BBF02C0DF
:10E1100007900D92A231B107D9F723E0A2E1B2E056
:10E1200001C01D92AD34B207E1F7DFD60D94EBFBD1
:10E1300001E20EBF0FEF0DBF11241FBED6C660CF88
:10E140008093C6008091C00086FFFCCF8091C00004
:10E1500080648093C00008959C0190E080E0821765
:10E16000930709F40895EFECF7E03197F1F700C059
:10E1700000000196F4CFCF93DF93EC01C60FD11DC1
:10E18000CE01B0E0A0E0ABBFFC018791882319F07D
:10E190002196D6DFF5CFDF91CF9108958DE0D0DFC6
:10E1A0008AE0CECFE8DFFACFCF93DF93EC018991FD
:10E1B000882311F0C5DFFBCFDF91CF910895CF9376
:10E1C000C82F982F92959F7080E3890F8A3310F0A3
:10E1D00087E3890FB5DFCF7080E38C0F8A3310F0AF
:10E1E00087E38C0FCF91ACCF0F931F93CF93DF9327
:10E1F000EC018B01853691051CF46330710544F008
:10E20000CE0164E670E00F9465FB80E3860F98DF33
:10E21000CB30D1051CF40230110564F0CE0164E668
:10E2200070E00F9465FB6AE070E00F9465FB80E39B
:10E23000860F86DFCE016AE070E00F9465FB805D9B
:10E24000DF91CF911F910F917BCFCF93DF9300D0C0
:10E250000F92CDB7DEB769837A838B839C83E0917D
:10E260004A03F0914B039B01AC0122503109410953
:10E27000510986819781A085B1850297A109B109CD
:10E28000281739074A075B0718F5A281B0E00F94F9
:10E29000A1FB69837A838B839C8382899389A48978
:10E2A000B58929813A814B815C81280F391F4A1F2A
:10E2B0005B1F29833A834B835C8369817A818B81DD
:10E2C0009C810F900F900F900F90DF91CF91089548
:10E2D00019821A821B821C82F0CF0F931F93CF9357
:10E2E000DF93EC01E0914A03F0914B03198218820D
:10E2F0006C817D818E819F816130710581059105E1
:10E3000071F10681178120853185601771078207B9
:10E31000930728F5611571058105910539F4208170
:10E32000233021F46685778580899189688779878C
:10E330008A879B87611571058105910559F085DFF5
:10E340006C877D878E879F8780E0DF91CF911F91BB
:10E350000F9108956685778580899189F1CF81E055
:10E36000F4CF0F931F93CF93DF9300D00F92CDB7CD
:10E37000DEB7462F572FBC014230510561057105AC
:10E3800068F461E070E080E090E00F900F900F90F3
:10E390000F90DF91CF911F910F910895E0914A0363
:10E3A000F0914B0386819781A085B1854817590765
:10E3B0006A077B0730F78081823029F1833009F7C3
:10E3C0009A012F773327220F331F220F331F97E035
:10E3D00076956795579547959A95D1F78285938558
:10E3E000A485B585480F591F6A1F7B1F04E010E004
:10E3F000CE010196DCD48111C4CF69817A818B81F1
:10E400009C819F70C2CF9A013327220F331F452F63
:10E41000562F672F772782859385A485B585480F6A
:10E42000591F6A1F7B1F02E010E0CE010196BFD486
:10E430008111A7CF69817A8190E080E0A6CFCF9249
:10E44000DF92EF92FF920F931F93CF93DF93EC0134
:10E450006A017B0102E010E02EEF31E0A8D48111C7
:10E460002CC08881998185359A4A49F526E330E0A8
:10E47000A601B701CE019BD4811105C02881398145
:10E480002634314489F002E010E022E530E0A601B4
:10E49000B701CE018CD4811114C081E0288139816B
:10E4A0002634314409F480E0DF91CF911F910F9120
:10E4B000FF90EF90DF90CF90089583E0F5CF82E05A
:10E4C000F3CF81E0F1CF4F925F926F927F928F9264
:10E4D0009F92AF92BF92EF92FF920F931F93CF93B1
:10E4E000DF93CDB7DEB7AC970FB6F894DEBF0FBEA3
:10E4F000CDBF7C0110924B0310924A0310E0892B90
:10E50000E9F0BCD312E080FD19C040E050E0BA0150
:10E51000CE0101963C0193DF2301812C912C540103
:10E52000813079F500E110E02EEB31E040E050E081
:10E53000BA01C3013CD48823B9F011E0812FAC9615
:10E540000FB6F894DEBF0FBECDBFDF91CF911F9104
:10E550000F91FF90EF90BF90AF909F908F907F9022
:10E560006F905F904F9008958D81811102C017E0E8
:10E57000E5CF89849A84AB84BC84B501A401C3012E
:10E580005EDF8330D1F28111F2CF04E210E02DE0A2
:10E5900030E0B501A401C2010AD4182F8111CDCFFA
:10E5A0008A859B859C0150E040E0892B21F4288DD1
:10E5B000398D4A8D5B8DAC81B0E00F94A1FB69A7CA
:10E5C0007AA78BA79CA74A815B8170E060E0840EEC
:10E5D000951EA61EB71ED7011A968D929D92AD92DA
:10E5E000BC921D97E9811296EC9312978D819E81C2
:10E5F00015969C938E9314972F8138852901712C41
:10E60000612C4DA25EA26FA278A6232B41F44C8808
:10E610005D886E887F884DA25EA26FA278A624E0F6
:10E62000969587952A95E1F72C01712C612C440D64
:10E63000551D661D771D89A59AA5ABA5BCA5480FDC
:10E64000591F6A1F7B1F8DA19EA1AFA1B8A5841B76
:10E65000950BA60BB70B2E2F30E050E040E0BC012D
:10E66000CD010F9478FBDA01C9010296A11DB11DFD
:10E67000F70186839783A087B187873FFFE09F07D5
:10E68000A105B10508F473CF873F9F4FA105B105E0
:10E6900010F183E0D7018C9388A199A1AAA1BBA115
:10E6A000F70186879787A08BB18B840C951CA61CDD
:10E6B000B71C49A45AA46BA47CA4840C951CA61C6A
:10E6C000B71C828A938AA48AB58A1182F0924B037E
:10E6D000E0924A0333CF82E0D7018C9389A59AA5B3
:10E6E000ABA5BCA5880D991DAA1DBB1DD9CF4F9206
:10E6F0005F926F927F928F929F92AF92BF92CF92D2
:10E70000DF92EF92FF920F931F93CF93DF93CDB7DA
:10E71000DEB7C054D1090FB6F894DEBF0FBECDBF2F
:10E72000C0904A03D0904B03C114D10409F45DC1D9
:10E73000D60111961C929E012F5C3F4F3CA32BA348
:10E740009C017901F90180812F5F3F4F8032C9F32D
:10E750008F3209F479011DA21EA21FA218A6D701AB
:10E760008C91FE0131965F01813208F0E6C0CE0146
:10E770008196B3DD811101C083E0C05CDF4F0FB62D
:10E78000F894DEBF0FBECDBFDF91CF911F910F91E7
:10E79000FF90EF90DF90CF90BF90AF909F908F90C1
:10E7A0007F906F905F904F900895E40EF11C91E080
:10E7B000813208F090E0D8011B969C93CE0181969F
:10E7C0008CDD81119CC029A13AA12F70332755E01F
:10E7D000220F331F5A95E1F74DA55EA56FA578A9C5
:10E7E00000E210E0C501E3D2811101C189818823D3
:10E7F00009F448C08C8583FD12C02BA13CA1A9015E
:10E80000455F5F4FF9016A2D9B2DE417F50709F469
:10E810007AC0A62FB92F6D9191916917D1F109A1F5
:10E820001AA10F5F1F4F71F18DA59EA5AFA5B8A9C5
:10E830000097A105B10531F198012F703327232BE3
:10E8400009F05AC080904A0390904B030196A11D95
:10E85000B11D8DA79EA7AFA7B8AB89A59AA5ABA5FB
:10E86000BCA521968CAF9DAFAEAFBFAF2197892BD2
:10E870008A2B8B2B89F4D40114968D919C910817C7
:10E880001907D0F1EBA1FCA18385811175CF84E03C
:10E8900074CF6A2F9B2FB9CFF40182818150990BDD
:10E8A000980144E0369527954A95E1F78223932312
:10E8B000892B11F521966CAD7DAD8EAD9FAD219765
:10E8C00050DD623071058105910508F490C0D401D6
:10E8D00016964D905D906D907C9019976415750516
:10E8E0008605970578F669A77AA78BA79CA7ADDC64
:10E8F0006DA77EA78FA798AB1AA309A364CF833017
:10E9000009F4C0CF3ACFF90193858071911142C0CB
:10E9100009F4BDCF8D899E89B0E0A0E0DC01992784
:10E9200088274B8D5C8D70E060E0842B952BA62BA7
:10E93000B72B8DA39EA3AFA3B8A70BA11CA14BE03F
:10E9400050E060E270E0C80129D720E080E098E064
:10E9500041E0480FF701E80FF11D8081813208F492
:10E9600024CF8F3209F421CF8E3209F442C0291707
:10E9700008F01BCF3FE9380F3A3108F48052F80114
:10E98000E20FF11D8083392F91E0920F292F842F00
:10E99000932FDECF8111F0CE4D895E8970E060E06B
:10E9A000BA01552744270B8D1C8D30E020E0402B09
:10E9B000512B622B732BD6015E964D935D936D9315
:10E9C0007C9391974D8D5E8D6F8D78A1F601428F6E
:10E9D000538F648F758F56961D921D921D921C92B7
:10E9E000599791E011969C93C8CE86E0C6CE81E0FF
:10E9F000C4CE983009F0D9CE3BE0C8CF2F923F92D9
:10EA00004F925F927F928F929F92AF92BF92CF92DE
:10EA1000DF92EF92FF920F931F93CF93DF9300D07B
:10EA200000D0CDB7DEB72C017B015A0180914A039B
:10EA300090914B039E838D83DA011D921C92009767
:10EA400009F4E3C0FC018181F82FF1707F2E80FF73
:10EA5000DFC0ED81FE81828D938DA48DB58D4689B9
:10EA60005789608D718D841B950BA60BB70BA70181
:10EA700070E060E084179507A607B70708F47C01EB
:10EA80004201212C32E0332EE114F104D1F4712C37
:10EA9000872D26960FB6F894DEBF0FBECDBFDF914F
:10EAA000CF911F910F91FF90EF90DF90CF90BF908B
:10EAB000AF909F908F907F905F904F903F902F905E
:10EAC0000895ED81FE8186899789A08DB18DAC0175
:10EAD000BD01517066277727452B462B472B09F040
:10EAE00044C0D280DA94AC01BD0129E076956795E7
:10EAF000579547952A95D1F7D422A9F4892B8A2BCB
:10EB00008B2B09F06BC0468D578D60A171A14230EF
:10EB100051056105710508F474C0ED81FE8142A3C1
:10EB200053A364A375A3AD81BE8192968D919D91EF
:10EB30000D90BC91A02D89839A83AB83BC83BC01CB
:10EB4000CD0183DB462F572FBC01411551056105CF
:10EB5000710509F456C04D0D511D611D711DED81EA
:10EB6000FE8146A357A360A771A7AD81BE815696CB
:10EB70002D913C913170C101821B930B67018E1561
:10EB80009F0508F46C01ED81FE8146A157A160A5A7
:10EB900071A5C4014114510411F480E090E0860194
:10EBA00006D181112EC0ED81FE8186899789A08DC5
:10EBB000B18D8C0D9D1DA11DB11D868B978BA08FD6
:10EBC000B18F8C0C9D1CEC18FD08D5018D919C918A
:10EBD0001197C80ED91ECD92DC9256CFAD81BE8161
:10EBE00092968D919D910D90BC91A02D89839A83D1
:10EBF000AB83BC83BC01CD01B4DB462F572FBC01D6
:10EC000086CFED81FE81118243CF96E0792E40CFF1
:10EC100085E0782E3DCFFF920F931F93CF93DF9324
:10EC2000C82FD42F152F062FF72E87FF08C040E0DE
:10EC300050E0BA0187E7EFDF8230D0F4CF7715D10B
:10EC40008C2F18D18F2D16D1802F14D1812F12D156
:10EC50008D2F10D185E9C03421F087E8C83409F040
:10EC600081E008D1CAE005D187FF02C0C150D9F7C1
:10EC7000DF91CF911F910F91FF900895CF92DF9276
:10EC8000EF92FF920F931F93CF93DF9300D00F92D9
:10EC9000CDB7DEB7DDD014E6E0D01150E9F71AE0C9
:10ECA000E7D01150E9F740E050E0BA0180E4B3DF6B
:10ECB000182F813009F043C04AEA51E060E070E06B
:10ECC00088E4A9DF813009F04EC08E010F5F1F4F2D
:10ECD0006E0185E0C80ED11C7801CBD0F70181937D
:10ECE0007F01EC15FD05C9F78B81813041F58C81E1
:10ECF0008A3A29F590E1E92E97E2F92E40E050E0BA
:10ED000060E070E489EE87DF811114C040E050E0DC
:10ED1000BA018AE780DF811112C0ABD0F80181937C
:10ED20008F01CE16DF06C9F7898114E086FF08C07F
:10ED30001CE006C092D0F1E0EF1AF108F9F610E0FD
:10ED400010934C0395D081E0111180E00F900F904B
:10ED50000F900F90DF91CF911F910F91FF90EF9047
:10ED6000DF90CF90089540E050E0BA0189EE53DF84
:10ED700001E4823010F412E009EE80E1E82E87E22F
:10ED8000F82E40E050E0BA01802F45DF811109C024
:10ED900040E052E060E070E080E53DDF8111CFCFE0
:10EDA000CFCF5BD0F1E0EF1AF10859F7C8CFAF929F
:10EDB000BF92CF92DF92EF92FF920F931F93CF9368
:10EDC000DF935C017901680180914C0383FD07C0EA
:10EDD00089E0440F551F661F771F8A95D1F781E59B
:10EDE0001ADF182F811107C0C0E4DCE942D08F3F41
:10EDF00021F42197D9F711E01EC08E3FE1F7C2E060
:10EE0000D2E0CC19DD09CE19DF09E114F10429F0B3
:10EE100030D081E0E81AF108F8CF7501EFEFAE1AB3
:10EE2000BE0A27D0F7018083F1E0CF1AD108A9F7F5
:10EE300020D02197E9F71CD0812FDF91CF911F912E
:10EE40000F91FF90EF90DF90CF90BF90AF9008951B
:10EE5000209A229A219A2B9A089580EA3197319725
:10EE6000319700008A95D1F7089502D0289801C003
:10EE7000289A8FEF98E087FD2A9A87FF2A98880FB3
:10EE80001B998395299A29989A95A9F70895FB01CA
:10EE90008BBF83E080935700E8958091570080FDF9
:10EEA000FCCF81E180935700E89508950F921F925F
:10EEB0008BBFFB01DA0190E80D901D9081E08093FB
:10EEC0005700E89532969A95B9F7FB0185E0809353
:10EED0005700E8958091570080FDFCCF81E1809339
:10EEE0005700E8951F900F900895CDB7DEB7CF5229
:10EEF000D1400FB6F894DEBF0FBECDBF01E20EBF0A
:10EF00000FEF0DBF94B7F894A89514BE80916000E0
:10EF100088618093600010926000789493FF05C030
:10EF2000E0911E02F0911F021995279A2F9A809165
:10EF3000C00082608093C00080E18093C40088E1BB
:10EF40008093C100000010E000E0C12CD12C7601BC
:10EF500057EC852E5BE1952EA12CB12C8091C00041
:10EF600087FD90C0012B09F46BC083E690E01DD4AF
:10EF7000803F09F064C280E293E0A5DA84E092E089
:10EF8000B6DB81115CC28DE0DBD88AE0D9D8CE5DDA
:10EF9000DE4F188219821A821B82C252D14085B17B
:10EFA000805885B982E390E0D7D8CE5DDE4F688186
:10EFB00079818A819B81C252D14069DF40E051E072
:10EFC0006FEF70E080E292E0E9D3AE014F5F5F4FF8
:10EFD00060E071E080E292E011DD89819A81892B05
:10EFE00059F040E252E0CE5DDE4F688179818A813E
:10EFF0009B81C252D1405ADFCE5DDE4F28813981DC
:10F000004A815B81C252D1403F5F4F4F5F4FCE5D1F
:10F01000DE4F288339834A835B83C252D140211556
:10F02000304E4340510509F0BACF8DE089D88AE0CF
:10F0300087D8109200026FEF83E690E0BED3FFC145
:10F0400025E02A95F1F700003FEFC31AD30AE30A3F
:10F05000F30A81E041E2C4164EE4D406E104F1046F
:10F0600008F480E0082F10E0C701B601A501940163
:10F070003FD3672B682B692B09F070CF85B180587F
:10F0800085B96CCF012B09F070CFC45DDE4F1982BA
:10F090001882CC52D140312C212CCE5DDE4F19820A
:10F0A0001882C252D140812C912C5401412C512CF8
:10F0B000320141E050E0CA5DDE4F1882C652D140B5
:10F0C000D12CCE010196C25EDE4F99838883CE514A
:10F0D000D140C25EDE4F9881CE51D140C25DDE4F3D
:10F0E0009883CE52D140C15EDE4FA881CF51D1402E
:10F0F000C15DDE4FA883CF52D140FE013B96C05E7A
:10F10000DE4FF983E883C052D14030E020E080E058
:10F110002AC0415051096109710971F46BBFFA01AC
:10F12000479156914F3F5F4F19F0EE27FF27099403
:10F1300041E052E16AE770E09091C00097FFE9CFAB
:10F1400015C0312C212C833009F46FC008F047C062
:10F15000813009F45BC0823009F460C0882309F46F
:10F160004EC040E050E04130510511F79091C6008B
:10F17000C45DDE4FA881B981CC52D1401196C45DE7
:10F18000DE4FB983A883CC52D1409132D1F61A9781
:10F19000C0F6BFEF2B1A3B0AE3E02E16310499F6B6
:10F1A000312C212C71E0C55DDE4F7883CB52D140EC
:10F1B0002981243109F427C208F085C0263009F4DA
:10F1C000C0C108F06CC0223009F479C0233009F4C2
:10F1D00072C1213009F459C180EC8A8371C0853035
:10F1E000B9F1863009F456C0843019F1873009F03E
:10F1F000B8CFC55DDE4F1882CB52D140D9CF9B31FD
:10F2000009F0AFCF8BE1D82E81E0ABCFD926CA5D14
:10F21000DE4F9883C652D14082E0A3CF292F30E041
:10F22000322F2227D92683E09CCF292BD92684E0B0
:10F2300098CF9E3091F5D926CE5DDE4F1882C2520E
:10F24000D140CD5DDE4F1882C352D14085E089CFD9
:10F25000CE5DDE4F48815981C252D1404F5F5F4F32
:10F26000E1E0F0E0EC0FFD1FCE5DDE4F68817981BB
:10F27000C252D140E60FF71F9083D9264217530799
:10F2800009F01CC2CE5DDE4F39832883C252D140C3
:10F2900086E067CF9D1509F4ACCF80E062CF2231C4
:10F2A00009F447C12331E9F0203149F0213109F057
:10F2B00093CFF1E0C55DDE4FF883CB52D1401A8287
:10F2C00002E010E073C0293109F424C108F046C0FF
:10F2D000263109F498C1283109F407C1253109F014
:10F2E0007BCF0A811B81102701271027233109F0CA
:10F2F00050C1811430EC930633E0A306B10470F4DE
:10F3000043E0F401A0925B0040935700E89507B6F4
:10F3100000FCFDCF5FEF951AA50AB50A8B85DE01CB
:10F320001196B301A20121E01B969C911B970C0141
:10F33000FA0160935B0020935700E89511244E5F1B
:10F340005F4F6F4F7F4F0250110912960115110543
:10F3500009F40DC11A968C911A97E6CF2B3109F456
:10F36000B8C02D3179F02A3109F036CF1A8289E000
:10F37000E1E0F0E08093570084918B831C8204E0ED
:10F3800010E014C09D81903309F067C08F818823FD
:10F3900009F477C0813009F476C081E01A821B82BB
:10F3A0009C831D828E831F8207E010E08BE10F9407
:10F3B000A0F0CA5DDE4F8881C652D1400F94A0F004
:10F3C000812F0F94A0F0CA5DDE4FD880C652D14085
:10F3D000D126802F0F94A0F0D0268EE00F94A0F0BD
:10F3E00085E1D82641E050E04C0F5D1F040F151F4A
:10F3F000C25DDE4FE880CE52D140C15DDE4FF88065
:10F40000CF52D1400E151F0509F04DC18D2D0F941F
:10F41000A0F0CA5DDE4FB881C652D140BF5FCA5D61
:10F42000DE4FB883C652D14085B1805885B9C55DDD
:10F43000DE4FE881CB52D140EE2309F43CC10000FD
:10F440008091C0008D7F8093C00081E18093570040
:10F45000E895EE27FF270994FFCF892F807509F4DF
:10F460009DCF89E0F0E0E0E0903539F080E098351C
:10F4700009F094CF89E0E3E0F0E0809357008491B5
:10F480008DCF8EE18BCF88E989CF1A8288E08B837C
:10F4900081E48C8386E58D8382E58E8389E48F8386
:10F4A00083E5888780E589878FE58A8782E38B8774
:10F4B0000BE010E07BCFEA81E05980E0E33020F4FC
:10F4C000F0E0EF5FFD4F80811A828B8303E010E054
:10F4D0006DCF8D81882329F0813029F081E01A8257
:10F4E0004CCF8EE1FCCF88E9FACF8B81803571F467
:10F4F0008C81883039F489E0E2E0F0E080935700B5
:10F500008491EDCF89E0F0E0E0E0F8CF89E0E3E03E
:10F51000F0E0F4CF8D81836C99E0E1E0F0E0082E1B
:10F5200090935700E89507B600FCFDCF1A821B8226
:10F53000CDCF80EC8A8302E010E0812C912C540125
:10F5400035CF2A813B814C815D81C95DDE4F2883A7
:10F5500039834A835B83C752D140CA01B901EAD0DB
:10F560002B013C01440C551C661C771CA8CE85E081
:10F57000F20160925B0080935700E89507B600FCAB
:10F58000FDCF81E180935700E8951A822A013B0163
:10F5900097CED301C201B695A795979587956C0133
:10F5A000F801E80FF91FC95DDE4FF983E883C75200
:10F5B000D140C05EDE4F8881C052D140CF5DDE4F6A
:10F5C0009881C152D140C95DDE4FE881F981C752AF
:10F5D000D140EC15FD0569F430E020E0000F111F6B
:10F5E000221F331FB901A801440D551D661D771D4B
:10F5F000CCCFDC016D917D01C601DFD0BFEFCB1A0E
:10F60000DB0AC701E0CF8A819B8198278927982749
:10F610008C010D5F1F4F1A822431C9F4DE0111964F
:10F620006BBEF2012791369112962C931297FD0131
:10F63000349613963C93139722E0420E511C611CA2
:10F64000711C02971296009759F71082AFCEFE01F7
:10F6500031969F01280F391FB301A20141BDC52E6C
:10F66000D62EE72EFF24C2BC4F5F5F4F6F4F7F4FF8
:10F67000F89AA0B5A28331962E173F0779F7AC010F
:10F680004150510970E060E04F5F5F4F6F4F7F4F17
:10F69000440E551E661E771EE3E0F0E0EC0FFD1FE2
:10F6A000E80FF91FD2CFD701CD907D018C2D0F949B
:10F6B000A0F0DC24A7CE50E040E027CDCE5DDE4FA9
:10F6C00059834883C252D1404CCD97FB072E16F484
:10F6D000009406D077FD08D03ED007FC05D03EF45C
:10F6E000909581959F4F0895709561957F4F0895EE
:10F6F000A1E21A2EAA1BBB1BFD010DC0AA1FBB1F36
:10F70000EE1FFF1FA217B307E407F50720F0A21BA7
:10F71000B30BE40BF50B661F771F881F991F1A9414
:10F7200069F760957095809590959B01AC01BD013E
:10F73000CF01089569279627692778278727782793
:10F7400008951DD0A59F900DB49F900DA49F800D8E
:10F75000911D11240895AA1BBB1B51E107C0AA1FCC
:10F76000BB1FA617B70710F0A61BB70B881F991F62
:10F770005A95A9F780959095BC01CD010895A29F57
:10F78000B001B39FC001A39F700D811D1124911D75
:10F79000B29F700D811D1124911D0895DC0101C0DF
:10F7A0006D9341505040E0F70895F999FECF92BD16
:10F7B00081BDF89A992780B50895262FF999FECF33
:10F7C0001FBA92BD81BD20BD0FB6F894FA9AF99A7E
:0AF7D0000FBE01960895F894FFCFD4
:10F7DA00010F020A6669726D776172652E62696E3F
:02F7EA0000001D
:040000033000E000E9
:00000001FF
